{
  "_format": "hh-sol-artifact-1",
  "contractName": "RaffleFrens",
  "sourceName": "contracts/RaffleFrens.sol",
  "abi": [
    {
      "inputs": [
        {
          "internalType": "string",
          "name": "baseURI",
          "type": "string"
        }
      ],
      "stateMutability": "nonpayable",
      "type": "constructor"
    },
    {
      "anonymous": false,
      "inputs": [
        {
          "indexed": true,
          "internalType": "address",
          "name": "owner",
          "type": "address"
        },
        {
          "indexed": true,
          "internalType": "address",
          "name": "approved",
          "type": "address"
        },
        {
          "indexed": true,
          "internalType": "uint256",
          "name": "tokenId",
          "type": "uint256"
        }
      ],
      "name": "Approval",
      "type": "event"
    },
    {
      "anonymous": false,
      "inputs": [
        {
          "indexed": true,
          "internalType": "address",
          "name": "owner",
          "type": "address"
        },
        {
          "indexed": true,
          "internalType": "address",
          "name": "operator",
          "type": "address"
        },
        {
          "indexed": false,
          "internalType": "bool",
          "name": "approved",
          "type": "bool"
        }
      ],
      "name": "ApprovalForAll",
      "type": "event"
    },
    {
      "anonymous": false,
      "inputs": [
        {
          "indexed": true,
          "internalType": "address",
          "name": "previousOwner",
          "type": "address"
        },
        {
          "indexed": true,
          "internalType": "address",
          "name": "newOwner",
          "type": "address"
        }
      ],
      "name": "OwnershipTransferred",
      "type": "event"
    },
    {
      "anonymous": false,
      "inputs": [
        {
          "indexed": true,
          "internalType": "address",
          "name": "from",
          "type": "address"
        },
        {
          "indexed": true,
          "internalType": "address",
          "name": "to",
          "type": "address"
        },
        {
          "indexed": true,
          "internalType": "uint256",
          "name": "tokenId",
          "type": "uint256"
        }
      ],
      "name": "Transfer",
      "type": "event"
    },
    {
      "anonymous": false,
      "inputs": [
        {
          "indexed": false,
          "internalType": "address",
          "name": "sender",
          "type": "address"
        },
        {
          "indexed": false,
          "internalType": "uint256",
          "name": "tokenId",
          "type": "uint256"
        }
      ],
      "name": "newFrenMinted",
      "type": "event"
    },
    {
      "anonymous": false,
      "inputs": [
        {
          "indexed": false,
          "internalType": "address",
          "name": "sender",
          "type": "address"
        },
        {
          "indexed": false,
          "internalType": "uint256",
          "name": "tokenId",
          "type": "uint256"
        }
      ],
      "name": "raffleFrenMinted",
      "type": "event"
    },
    {
      "inputs": [],
      "name": "MAX_PER_MINT",
      "outputs": [
        {
          "internalType": "uint256",
          "name": "",
          "type": "uint256"
        }
      ],
      "stateMutability": "view",
      "type": "function"
    },
    {
      "inputs": [],
      "name": "MAX_SUPPLY",
      "outputs": [
        {
          "internalType": "uint256",
          "name": "",
          "type": "uint256"
        }
      ],
      "stateMutability": "view",
      "type": "function"
    },
    {
      "inputs": [],
      "name": "PRICE",
      "outputs": [
        {
          "internalType": "uint256",
          "name": "",
          "type": "uint256"
        }
      ],
      "stateMutability": "view",
      "type": "function"
    },
    {
      "inputs": [
        {
          "internalType": "address",
          "name": "to",
          "type": "address"
        },
        {
          "internalType": "uint256",
          "name": "tokenId",
          "type": "uint256"
        }
      ],
      "name": "approve",
      "outputs": [],
      "stateMutability": "nonpayable",
      "type": "function"
    },
    {
      "inputs": [
        {
          "internalType": "address",
          "name": "owner",
          "type": "address"
        }
      ],
      "name": "balanceOf",
      "outputs": [
        {
          "internalType": "uint256",
          "name": "",
          "type": "uint256"
        }
      ],
      "stateMutability": "view",
      "type": "function"
    },
    {
      "inputs": [],
      "name": "baseTokenURI",
      "outputs": [
        {
          "internalType": "string",
          "name": "",
          "type": "string"
        }
      ],
      "stateMutability": "view",
      "type": "function"
    },
    {
      "inputs": [
        {
          "internalType": "uint256",
          "name": "tokenId",
          "type": "uint256"
        }
      ],
      "name": "getApproved",
      "outputs": [
        {
          "internalType": "address",
          "name": "",
          "type": "address"
        }
      ],
      "stateMutability": "view",
      "type": "function"
    },
    {
      "inputs": [
        {
          "internalType": "address",
          "name": "owner",
          "type": "address"
        },
        {
          "internalType": "address",
          "name": "operator",
          "type": "address"
        }
      ],
      "name": "isApprovedForAll",
      "outputs": [
        {
          "internalType": "bool",
          "name": "",
          "type": "bool"
        }
      ],
      "stateMutability": "view",
      "type": "function"
    },
    {
      "inputs": [
        {
          "internalType": "uint256",
          "name": "_count",
          "type": "uint256"
        }
      ],
      "name": "mintFren",
      "outputs": [],
      "stateMutability": "payable",
      "type": "function"
    },
    {
      "inputs": [],
      "name": "name",
      "outputs": [
        {
          "internalType": "string",
          "name": "",
          "type": "string"
        }
      ],
      "stateMutability": "view",
      "type": "function"
    },
    {
      "inputs": [],
      "name": "owner",
      "outputs": [
        {
          "internalType": "address",
          "name": "",
          "type": "address"
        }
      ],
      "stateMutability": "view",
      "type": "function"
    },
    {
      "inputs": [
        {
          "internalType": "uint256",
          "name": "tokenId",
          "type": "uint256"
        }
      ],
      "name": "ownerOf",
      "outputs": [
        {
          "internalType": "address",
          "name": "",
          "type": "address"
        }
      ],
      "stateMutability": "view",
      "type": "function"
    },
    {
      "inputs": [],
      "name": "renounceOwnership",
      "outputs": [],
      "stateMutability": "nonpayable",
      "type": "function"
    },
    {
      "inputs": [],
      "name": "reserveNFTs",
      "outputs": [],
      "stateMutability": "nonpayable",
      "type": "function"
    },
    {
      "inputs": [
        {
          "internalType": "address",
          "name": "from",
          "type": "address"
        },
        {
          "internalType": "address",
          "name": "to",
          "type": "address"
        },
        {
          "internalType": "uint256",
          "name": "tokenId",
          "type": "uint256"
        }
      ],
      "name": "safeTransferFrom",
      "outputs": [],
      "stateMutability": "nonpayable",
      "type": "function"
    },
    {
      "inputs": [
        {
          "internalType": "address",
          "name": "from",
          "type": "address"
        },
        {
          "internalType": "address",
          "name": "to",
          "type": "address"
        },
        {
          "internalType": "uint256",
          "name": "tokenId",
          "type": "uint256"
        },
        {
          "internalType": "bytes",
          "name": "_data",
          "type": "bytes"
        }
      ],
      "name": "safeTransferFrom",
      "outputs": [],
      "stateMutability": "nonpayable",
      "type": "function"
    },
    {
      "inputs": [
        {
          "internalType": "address",
          "name": "operator",
          "type": "address"
        },
        {
          "internalType": "bool",
          "name": "approved",
          "type": "bool"
        }
      ],
      "name": "setApprovalForAll",
      "outputs": [],
      "stateMutability": "nonpayable",
      "type": "function"
    },
    {
      "inputs": [
        {
          "internalType": "string",
          "name": "_baseTokenURI",
          "type": "string"
        }
      ],
      "name": "setBaseURI",
      "outputs": [],
      "stateMutability": "nonpayable",
      "type": "function"
    },
    {
      "inputs": [
        {
          "internalType": "bytes4",
          "name": "interfaceId",
          "type": "bytes4"
        }
      ],
      "name": "supportsInterface",
      "outputs": [
        {
          "internalType": "bool",
          "name": "",
          "type": "bool"
        }
      ],
      "stateMutability": "view",
      "type": "function"
    },
    {
      "inputs": [],
      "name": "symbol",
      "outputs": [
        {
          "internalType": "string",
          "name": "",
          "type": "string"
        }
      ],
      "stateMutability": "view",
      "type": "function"
    },
    {
      "inputs": [
        {
          "internalType": "uint256",
          "name": "index",
          "type": "uint256"
        }
      ],
      "name": "tokenByIndex",
      "outputs": [
        {
          "internalType": "uint256",
          "name": "",
          "type": "uint256"
        }
      ],
      "stateMutability": "view",
      "type": "function"
    },
    {
      "inputs": [
        {
          "internalType": "address",
          "name": "owner",
          "type": "address"
        },
        {
          "internalType": "uint256",
          "name": "index",
          "type": "uint256"
        }
      ],
      "name": "tokenOfOwnerByIndex",
      "outputs": [
        {
          "internalType": "uint256",
          "name": "",
          "type": "uint256"
        }
      ],
      "stateMutability": "view",
      "type": "function"
    },
    {
      "inputs": [
        {
          "internalType": "uint256",
          "name": "tokenId",
          "type": "uint256"
        }
      ],
      "name": "tokenURI",
      "outputs": [
        {
          "internalType": "string",
          "name": "",
          "type": "string"
        }
      ],
      "stateMutability": "view",
      "type": "function"
    },
    {
      "inputs": [
        {
          "internalType": "address",
          "name": "_owner",
          "type": "address"
        }
      ],
      "name": "tokensOfOwner",
      "outputs": [
        {
          "internalType": "uint256[]",
          "name": "",
          "type": "uint256[]"
        }
      ],
      "stateMutability": "view",
      "type": "function"
    },
    {
      "inputs": [],
      "name": "totalSupply",
      "outputs": [
        {
          "internalType": "uint256",
          "name": "",
          "type": "uint256"
        }
      ],
      "stateMutability": "view",
      "type": "function"
    },
    {
      "inputs": [
        {
          "internalType": "address",
          "name": "from",
          "type": "address"
        },
        {
          "internalType": "address",
          "name": "to",
          "type": "address"
        },
        {
          "internalType": "uint256",
          "name": "tokenId",
          "type": "uint256"
        }
      ],
      "name": "transferFrom",
      "outputs": [],
      "stateMutability": "nonpayable",
      "type": "function"
    },
    {
      "inputs": [
        {
          "internalType": "address",
          "name": "newOwner",
          "type": "address"
        }
      ],
      "name": "transferOwnership",
      "outputs": [],
      "stateMutability": "nonpayable",
      "type": "function"
    },
    {
      "inputs": [],
      "name": "withdraw",
      "outputs": [],
      "stateMutability": "payable",
      "type": "function"
    }
  ],
  "bytecode": "0x60806040523480156200001157600080fd5b5060405162004d7838038062004d788339818101604052810190620000379190620004eb565b6040518060400160405280600c81526020017f526166666c65204672656e7300000000000000000000000000000000000000008152506040518060400160405280600281526020017f52460000000000000000000000000000000000000000000000000000000000008152508160009080519060200190620000bb929190620003c9565b508060019080519060200190620000d4929190620003c9565b505050620000f7620000eb6200015a60201b60201c565b6200016260201b60201c565b62000108816200022860201b60201c565b620001536040518060400160405280601e81526020017f54686973206973206d79204e465420636f6e74726163742e2057686f61210000815250620002d360201b620016fd1760201c565b5062000793565b600033905090565b6000600a60009054906101000a900473ffffffffffffffffffffffffffffffffffffffff16905081600a60006101000a81548173ffffffffffffffffffffffffffffffffffffffff021916908373ffffffffffffffffffffffffffffffffffffffff1602179055508173ffffffffffffffffffffffffffffffffffffffff168173ffffffffffffffffffffffffffffffffffffffff167f8be0079c531659141344cd1fd0a4f28419497f9722a3daafe3b4186f6b6457e060405160405180910390a35050565b620002386200015a60201b60201c565b73ffffffffffffffffffffffffffffffffffffffff166200025e6200037660201b60201c565b73ffffffffffffffffffffffffffffffffffffffff1614620002b7576040517f08c379a0000000000000000000000000000000000000000000000000000000008152600401620002ae90620005bc565b60405180910390fd5b80600c9080519060200190620002cf929190620003c9565b5050565b6200037381604051602401620002ea919062000598565b6040516020818303038152906040527f41304fac000000000000000000000000000000000000000000000000000000007bffffffffffffffffffffffffffffffffffffffffffffffffffffffff19166020820180517bffffffffffffffffffffffffffffffffffffffffffffffffffffffff8381831617835250505050620003a060201b60201c565b50565b6000600a60009054906101000a900473ffffffffffffffffffffffffffffffffffffffff16905090565b60008151905060006a636f6e736f6c652e6c6f679050602083016000808483855afa5050505050565b828054620003d7906200068f565b90600052602060002090601f016020900481019282620003fb576000855562000447565b82601f106200041657805160ff191683800117855562000447565b8280016001018555821562000447579182015b828111156200044657825182559160200191906001019062000429565b5b5090506200045691906200045a565b5090565b5b80821115620004755760008160009055506001016200045b565b5090565b6000620004906200048a8462000607565b620005de565b905082815260208101848484011115620004a957600080fd5b620004b684828562000659565b509392505050565b600082601f830112620004d057600080fd5b8151620004e284826020860162000479565b91505092915050565b600060208284031215620004fe57600080fd5b600082015167ffffffffffffffff8111156200051957600080fd5b6200052784828501620004be565b91505092915050565b60006200053d826200063d565b62000549818562000648565b93506200055b81856020860162000659565b620005668162000759565b840191505092915050565b60006200058060208362000648565b91506200058d826200076a565b602082019050919050565b60006020820190508181036000830152620005b4818462000530565b905092915050565b60006020820190508181036000830152620005d78162000571565b9050919050565b6000620005ea620005fd565b9050620005f88282620006c5565b919050565b6000604051905090565b600067ffffffffffffffff8211156200062557620006246200072a565b5b620006308262000759565b9050602081019050919050565b600081519050919050565b600082825260208201905092915050565b60005b83811015620006795780820151818401526020810190506200065c565b8381111562000689576000848401525b50505050565b60006002820490506001821680620006a857607f821691505b60208210811415620006bf57620006be620006fb565b5b50919050565b620006d08262000759565b810181811067ffffffffffffffff82111715620006f257620006f16200072a565b5b80604052505050565b7f4e487b7100000000000000000000000000000000000000000000000000000000600052602260045260246000fd5b7f4e487b7100000000000000000000000000000000000000000000000000000000600052604160045260246000fd5b6000601f19601f8301169050919050565b7f4f776e61626c653a2063616c6c6572206973206e6f7420746865206f776e6572600082015250565b6145d580620007a36000396000f3fe6080604052600436106101b75760003560e01c80636352211e116100ec578063a22cb4651161008a578063d547cfb711610064578063d547cfb7146105ff578063df47ebc01461062a578063e985e9c514610646578063f2fde38b14610683576101b7565b8063a22cb46514610570578063b88d4fde14610599578063c87b56dd146105c2576101b7565b80638462151c116100c65780638462151c146104b25780638d859f3e146104ef5780638da5cb5b1461051a57806395d89b4114610545576101b7565b80636352211e1461042157806370a082311461045e578063715018a61461049b576101b7565b806323b872dd116101595780633ccfd60b116101335780633ccfd60b1461038857806342842e0e146103925780634f6ccce7146103bb57806355f804b3146103f8576101b7565b806323b872dd146102f75780632f745c591461032057806332cb6b0c1461035d576101b7565b8063095ea7b311610195578063095ea7b31461026157806309d42b301461028a578063144100c7146102b557806318160ddd146102cc576101b7565b806301ffc9a7146101bc57806306fdde03146101f9578063081812fc14610224575b600080fd5b3480156101c857600080fd5b506101e360048036038101906101de9190613004565b6106ac565b6040516101f09190613701565b60405180910390f35b34801561020557600080fd5b5061020e610726565b60405161021b919061371c565b60405180910390f35b34801561023057600080fd5b5061024b60048036038101906102469190613097565b6107b8565b604051610258919061364f565b60405180910390f35b34801561026d57600080fd5b5061028860048036038101906102839190612fc8565b61083d565b005b34801561029657600080fd5b5061029f610955565b6040516102ac9190613a7c565b60405180910390f35b3480156102c157600080fd5b506102ca61095a565b005b3480156102d857600080fd5b506102e1610a65565b6040516102ee9190613a7c565b60405180910390f35b34801561030357600080fd5b5061031e60048036038101906103199190612ec2565b610a72565b005b34801561032c57600080fd5b5061034760048036038101906103429190612fc8565b610ad2565b6040516103549190613a7c565b60405180910390f35b34801561036957600080fd5b50610372610b77565b60405161037f9190613a7c565b60405180910390f35b610390610b7c565b005b34801561039e57600080fd5b506103b960048036038101906103b49190612ec2565b610cf0565b005b3480156103c757600080fd5b506103e260048036038101906103dd9190613097565b610d10565b6040516103ef9190613a7c565b60405180910390f35b34801561040457600080fd5b5061041f600480360381019061041a9190613056565b610da7565b005b34801561042d57600080fd5b5061044860048036038101906104439190613097565b610e3d565b604051610455919061364f565b60405180910390f35b34801561046a57600080fd5b5061048560048036038101906104809190612e5d565b610eef565b6040516104929190613a7c565b60405180910390f35b3480156104a757600080fd5b506104b0610fa7565b005b3480156104be57600080fd5b506104d960048036038101906104d49190612e5d565b61102f565b6040516104e691906136df565b60405180910390f35b3480156104fb57600080fd5b50610504611129565b6040516105119190613a7c565b60405180910390f35b34801561052657600080fd5b5061052f61112e565b60405161053c919061364f565b60405180910390f35b34801561055157600080fd5b5061055a611158565b604051610567919061371c565b60405180910390f35b34801561057c57600080fd5b5061059760048036038101906105929190612f8c565b6111ea565b005b3480156105a557600080fd5b506105c060048036038101906105bb9190612f11565b611200565b005b3480156105ce57600080fd5b506105e960048036038101906105e49190613097565b611262565b6040516105f6919061371c565b60405180910390f35b34801561060b57600080fd5b50610614611309565b604051610621919061371c565b60405180910390f35b610644600480360381019061063f9190613097565b611397565b005b34801561065257600080fd5b5061066d60048036038101906106689190612e86565b611571565b60405161067a9190613701565b60405180910390f35b34801561068f57600080fd5b506106aa60048036038101906106a59190612e5d565b611605565b005b60007f780e9d63000000000000000000000000000000000000000000000000000000007bffffffffffffffffffffffffffffffffffffffffffffffffffffffff1916827bffffffffffffffffffffffffffffffffffffffffffffffffffffffff1916148061071f575061071e82611796565b5b9050919050565b60606000805461073590613d85565b80601f016020809104026020016040519081016040528092919081815260200182805461076190613d85565b80156107ae5780601f10610783576101008083540402835291602001916107ae565b820191906000526020600020905b81548152906001019060200180831161079157829003601f168201915b5050505050905090565b60006107c382611878565b610802576040517f08c379a00000000000000000000000000000000000000000000000000000000081526004016107f99061393c565b60405180910390fd5b6004600083815260200190815260200160002060009054906101000a900473ffffffffffffffffffffffffffffffffffffffff169050919050565b600061084882610e3d565b90508073ffffffffffffffffffffffffffffffffffffffff168373ffffffffffffffffffffffffffffffffffffffff1614156108b9576040517f08c379a00000000000000000000000000000000000000000000000000000000081526004016108b0906139dc565b60405180910390fd5b8073ffffffffffffffffffffffffffffffffffffffff166108d86118e4565b73ffffffffffffffffffffffffffffffffffffffff1614806109075750610906816109016118e4565b611571565b5b610946576040517f08c379a000000000000000000000000000000000000000000000000000000000815260040161093d9061387c565b60405180910390fd5b61095083836118ec565b505050565b600581565b6109626118e4565b73ffffffffffffffffffffffffffffffffffffffff1661098061112e565b73ffffffffffffffffffffffffffffffffffffffff16146109d6576040517f08c379a00000000000000000000000000000000000000000000000000000000081526004016109cd9061397c565b60405180910390fd5b60006109e2600b6119a5565b905060c86109fa600a836119b390919063ffffffff16565b10610a3a576040517f08c379a0000000000000000000000000000000000000000000000000000000008152600401610a31906138dc565b60405180910390fd5b60005b600a811015610a6157610a4e6119c9565b8080610a5990613de8565b915050610a3d565b5050565b6000600880549050905090565b610a83610a7d6118e4565b82611a6d565b610ac2576040517f08c379a0000000000000000000000000000000000000000000000000000000008152600401610ab990613a1c565b60405180910390fd5b610acd838383611b4b565b505050565b6000610add83610eef565b8210610b1e576040517f08c379a0000000000000000000000000000000000000000000000000000000008152600401610b159061377c565b60405180910390fd5b600660008473ffffffffffffffffffffffffffffffffffffffff1673ffffffffffffffffffffffffffffffffffffffff168152602001908152602001600020600083815260200190815260200160002054905092915050565b60c881565b610b846118e4565b73ffffffffffffffffffffffffffffffffffffffff16610ba261112e565b73ffffffffffffffffffffffffffffffffffffffff1614610bf8576040517f08c379a0000000000000000000000000000000000000000000000000000000008152600401610bef9061397c565b60405180910390fd5b600047905060008111610c40576040517f08c379a0000000000000000000000000000000000000000000000000000000008152600401610c379061391c565b60405180910390fd5b60003373ffffffffffffffffffffffffffffffffffffffff1682604051610c669061363a565b60006040518083038185875af1925050503d8060008114610ca3576040519150601f19603f3d011682016040523d82523d6000602084013e610ca8565b606091505b5050905080610cec576040517f08c379a0000000000000000000000000000000000000000000000000000000008152600401610ce3906139fc565b60405180910390fd5b5050565b610d0b83838360405180602001604052806000815250611200565b505050565b6000610d1a610a65565b8210610d5b576040517f08c379a0000000000000000000000000000000000000000000000000000000008152600401610d5290613a3c565b60405180910390fd5b60088281548110610d95577f4e487b7100000000000000000000000000000000000000000000000000000000600052603260045260246000fd5b90600052602060002001549050919050565b610daf6118e4565b73ffffffffffffffffffffffffffffffffffffffff16610dcd61112e565b73ffffffffffffffffffffffffffffffffffffffff1614610e23576040517f08c379a0000000000000000000000000000000000000000000000000000000008152600401610e1a9061397c565b60405180910390fd5b80600c9080519060200190610e39929190612c81565b5050565b6000806002600084815260200190815260200160002060009054906101000a900473ffffffffffffffffffffffffffffffffffffffff169050600073ffffffffffffffffffffffffffffffffffffffff168173ffffffffffffffffffffffffffffffffffffffff161415610ee6576040517f08c379a0000000000000000000000000000000000000000000000000000000008152600401610edd906138bc565b60405180910390fd5b80915050919050565b60008073ffffffffffffffffffffffffffffffffffffffff168273ffffffffffffffffffffffffffffffffffffffff161415610f60576040517f08c379a0000000000000000000000000000000000000000000000000000000008152600401610f579061389c565b60405180910390fd5b600360008373ffffffffffffffffffffffffffffffffffffffff1673ffffffffffffffffffffffffffffffffffffffff168152602001908152602001600020549050919050565b610faf6118e4565b73ffffffffffffffffffffffffffffffffffffffff16610fcd61112e565b73ffffffffffffffffffffffffffffffffffffffff1614611023576040517f08c379a000000000000000000000000000000000000000000000000000000000815260040161101a9061397c565b60405180910390fd5b61102d6000611db2565b565b6060600061103c83610eef565b905060008167ffffffffffffffff811115611080577f4e487b7100000000000000000000000000000000000000000000000000000000600052604160045260246000fd5b6040519080825280602002602001820160405280156110ae5781602001602082028036833780820191505090505b50905060005b8281101561111e576110c68582610ad2565b8282815181106110ff577f4e487b7100000000000000000000000000000000000000000000000000000000600052603260045260246000fd5b602002602001018181525050808061111690613de8565b9150506110b4565b508092505050919050565b600081565b6000600a60009054906101000a900473ffffffffffffffffffffffffffffffffffffffff16905090565b60606001805461116790613d85565b80601f016020809104026020016040519081016040528092919081815260200182805461119390613d85565b80156111e05780601f106111b5576101008083540402835291602001916111e0565b820191906000526020600020905b8154815290600101906020018083116111c357829003601f168201915b5050505050905090565b6111fc6111f56118e4565b8383611e78565b5050565b61121161120b6118e4565b83611a6d565b611250576040517f08c379a000000000000000000000000000000000000000000000000000000000815260040161124790613a1c565b60405180910390fd5b61125c84848484611fe5565b50505050565b606061126d82611878565b6112ac576040517f08c379a00000000000000000000000000000000000000000000000000000000081526004016112a39061399c565b60405180910390fd5b60006112b6612041565b905060008151116112d65760405180602001604052806000815250611301565b806112e0846120d3565b6040516020016112f19291906135ff565b6040516020818303038152906040525b915050919050565b600c805461131690613d85565b80601f016020809104026020016040519081016040528092919081815260200182805461134290613d85565b801561138f5780601f106113645761010080835404028352916020019161138f565b820191906000526020600020905b81548152906001019060200180831161137257829003601f168201915b505050505081565b60006113a3600b6119a5565b905060c86113ba83836119b390919063ffffffff16565b11156113fb576040517f08c379a00000000000000000000000000000000000000000000000000000000081526004016113f29061395c565b60405180910390fd5b60008211801561140c575060058211155b61144b576040517f08c379a000000000000000000000000000000000000000000000000000000000815260040161144290613a5c565b60405180910390fd5b61145f82600061228090919063ffffffff16565b3410156114a1576040517f08c379a0000000000000000000000000000000000000000000000000000000008152600401611498906139bc565b60405180910390fd5b60005b8281101561156c576114b46119c9565b6114f26040518060400160405280601581526020017f0a2d2d2d2d2d2d2d2d2d2d2d2d2d2d2d2d2d2d2d2d00000000000000000000008152506116fd565b61151b600c6040516020016115079190613623565b6040516020818303038152906040526116fd565b6115596040518060400160405280601581526020017f2d2d2d2d2d2d2d2d2d2d2d2d2d2d2d2d2d2d2d2d0a00000000000000000000008152506116fd565b808061156490613de8565b9150506114a4565b505050565b6000600560008473ffffffffffffffffffffffffffffffffffffffff1673ffffffffffffffffffffffffffffffffffffffff16815260200190815260200160002060008373ffffffffffffffffffffffffffffffffffffffff1673ffffffffffffffffffffffffffffffffffffffff16815260200190815260200160002060009054906101000a900460ff16905092915050565b61160d6118e4565b73ffffffffffffffffffffffffffffffffffffffff1661162b61112e565b73ffffffffffffffffffffffffffffffffffffffff1614611681576040517f08c379a00000000000000000000000000000000000000000000000000000000081526004016116789061397c565b60405180910390fd5b600073ffffffffffffffffffffffffffffffffffffffff168173ffffffffffffffffffffffffffffffffffffffff1614156116f1576040517f08c379a00000000000000000000000000000000000000000000000000000000081526004016116e8906137bc565b60405180910390fd5b6116fa81611db2565b50565b61179381604051602401611711919061371c565b6040516020818303038152906040527f41304fac000000000000000000000000000000000000000000000000000000007bffffffffffffffffffffffffffffffffffffffffffffffffffffffff19166020820180517bffffffffffffffffffffffffffffffffffffffffffffffffffffffff8381831617835250505050612296565b50565b60007f80ac58cd000000000000000000000000000000000000000000000000000000007bffffffffffffffffffffffffffffffffffffffffffffffffffffffff1916827bffffffffffffffffffffffffffffffffffffffffffffffffffffffff1916148061186157507f5b5e139f000000000000000000000000000000000000000000000000000000007bffffffffffffffffffffffffffffffffffffffffffffffffffffffff1916827bffffffffffffffffffffffffffffffffffffffffffffffffffffffff1916145b806118715750611870826122bf565b5b9050919050565b60008073ffffffffffffffffffffffffffffffffffffffff166002600084815260200190815260200160002060009054906101000a900473ffffffffffffffffffffffffffffffffffffffff1673ffffffffffffffffffffffffffffffffffffffff1614159050919050565b600033905090565b816004600083815260200190815260200160002060006101000a81548173ffffffffffffffffffffffffffffffffffffffff021916908373ffffffffffffffffffffffffffffffffffffffff160217905550808273ffffffffffffffffffffffffffffffffffffffff1661195f83610e3d565b73ffffffffffffffffffffffffffffffffffffffff167f8c5be1e5ebec7d5bd14f71427d1e84f3dd0314c0f7b2291e5b200ac8c7c3b92560405160405180910390a45050565b600081600001549050919050565b600081836119c19190613bba565b905092915050565b60006119d5600b6119a5565b90506119e13382612329565b6119eb600b612347565b611a0e60405180606001604052806025815260200161457b60259139823361235d565b611a3160405180606001604052806025815260200161457b60259139823361235d565b7f190f8c1a1a7b328f3475f75d83e4e1b79234685d34d53adbc7bd75cab64737a93382604051611a629291906136b6565b60405180910390a150565b6000611a7882611878565b611ab7576040517f08c379a0000000000000000000000000000000000000000000000000000000008152600401611aae9061385c565b60405180910390fd5b6000611ac283610e3d565b90508073ffffffffffffffffffffffffffffffffffffffff168473ffffffffffffffffffffffffffffffffffffffff161480611b3157508373ffffffffffffffffffffffffffffffffffffffff16611b19846107b8565b73ffffffffffffffffffffffffffffffffffffffff16145b80611b425750611b418185611571565b5b91505092915050565b8273ffffffffffffffffffffffffffffffffffffffff16611b6b82610e3d565b73ffffffffffffffffffffffffffffffffffffffff1614611bc1576040517f08c379a0000000000000000000000000000000000000000000000000000000008152600401611bb8906137dc565b60405180910390fd5b600073ffffffffffffffffffffffffffffffffffffffff168273ffffffffffffffffffffffffffffffffffffffff161415611c31576040517f08c379a0000000000000000000000000000000000000000000000000000000008152600401611c289061381c565b60405180910390fd5b611c3c8383836123fc565b611c476000826118ec565b6001600360008573ffffffffffffffffffffffffffffffffffffffff1673ffffffffffffffffffffffffffffffffffffffff1681526020019081526020016000206000828254611c979190613c9b565b925050819055506001600360008473ffffffffffffffffffffffffffffffffffffffff1673ffffffffffffffffffffffffffffffffffffffff1681526020019081526020016000206000828254611cee9190613bba565b92505081905550816002600083815260200190815260200160002060006101000a81548173ffffffffffffffffffffffffffffffffffffffff021916908373ffffffffffffffffffffffffffffffffffffffff160217905550808273ffffffffffffffffffffffffffffffffffffffff168473ffffffffffffffffffffffffffffffffffffffff167fddf252ad1be2c89b69c2b068fc378daa952ba7f163c4a11628f55a4df523b3ef60405160405180910390a4611dad838383612510565b505050565b6000600a60009054906101000a900473ffffffffffffffffffffffffffffffffffffffff16905081600a60006101000a81548173ffffffffffffffffffffffffffffffffffffffff021916908373ffffffffffffffffffffffffffffffffffffffff1602179055508173ffffffffffffffffffffffffffffffffffffffff168173ffffffffffffffffffffffffffffffffffffffff167f8be0079c531659141344cd1fd0a4f28419497f9722a3daafe3b4186f6b6457e060405160405180910390a35050565b8173ffffffffffffffffffffffffffffffffffffffff168373ffffffffffffffffffffffffffffffffffffffff161415611ee7576040517f08c379a0000000000000000000000000000000000000000000000000000000008152600401611ede9061383c565b60405180910390fd5b80600560008573ffffffffffffffffffffffffffffffffffffffff1673ffffffffffffffffffffffffffffffffffffffff16815260200190815260200160002060008473ffffffffffffffffffffffffffffffffffffffff1673ffffffffffffffffffffffffffffffffffffffff16815260200190815260200160002060006101000a81548160ff0219169083151502179055508173ffffffffffffffffffffffffffffffffffffffff168373ffffffffffffffffffffffffffffffffffffffff167f17307eab39ab6107e8899845ad3d59bd9653f200f220920489ca2b5937696c3183604051611fd89190613701565b60405180910390a3505050565b611ff0848484611b4b565b611ffc84848484612515565b61203b576040517f08c379a00000000000000000000000000000000000000000000000000000000081526004016120329061379c565b60405180910390fd5b50505050565b6060600c805461205090613d85565b80601f016020809104026020016040519081016040528092919081815260200182805461207c90613d85565b80156120c95780601f1061209e576101008083540402835291602001916120c9565b820191906000526020600020905b8154815290600101906020018083116120ac57829003601f168201915b5050505050905090565b6060600082141561211b576040518060400160405280600181526020017f3000000000000000000000000000000000000000000000000000000000000000815250905061227b565b600082905060005b6000821461214d57808061213690613de8565b915050600a826121469190613c10565b9150612123565b60008167ffffffffffffffff81111561218f577f4e487b7100000000000000000000000000000000000000000000000000000000600052604160045260246000fd5b6040519080825280601f01601f1916602001820160405280156121c15781602001600182028036833780820191505090505b5090505b60008514612274576001826121da9190613c9b565b9150600a856121e99190613e31565b60306121f59190613bba565b60f81b818381518110612231577f4e487b7100000000000000000000000000000000000000000000000000000000600052603260045260246000fd5b60200101907effffffffffffffffffffffffffffffffffffffffffffffffffffffffffffff1916908160001a905350600a8561226d9190613c10565b94506121c5565b8093505050505b919050565b6000818361228e9190613c41565b905092915050565b60008151905060006a636f6e736f6c652e6c6f679050602083016000808483855afa5050505050565b60007f01ffc9a7000000000000000000000000000000000000000000000000000000007bffffffffffffffffffffffffffffffffffffffffffffffffffffffff1916827bffffffffffffffffffffffffffffffffffffffffffffffffffffffff1916149050919050565b6123438282604051806020016040528060008152506126ac565b5050565b6001816000016000828254019250508190555050565b6123f78383836040516024016123759392919061373e565b6040516020818303038152906040527fe3849f79000000000000000000000000000000000000000000000000000000007bffffffffffffffffffffffffffffffffffffffffffffffffffffffff19166020820180517bffffffffffffffffffffffffffffffffffffffffffffffffffffffff8381831617835250505050612296565b505050565b612407838383612707565b600073ffffffffffffffffffffffffffffffffffffffff168373ffffffffffffffffffffffffffffffffffffffff16141561244a576124458161270c565b612489565b8173ffffffffffffffffffffffffffffffffffffffff168373ffffffffffffffffffffffffffffffffffffffff1614612488576124878382612755565b5b5b600073ffffffffffffffffffffffffffffffffffffffff168273ffffffffffffffffffffffffffffffffffffffff1614156124cc576124c7816128c2565b61250b565b8273ffffffffffffffffffffffffffffffffffffffff168273ffffffffffffffffffffffffffffffffffffffff161461250a576125098282612a05565b5b5b505050565b505050565b60006125368473ffffffffffffffffffffffffffffffffffffffff16612a84565b1561269f578373ffffffffffffffffffffffffffffffffffffffff1663150b7a0261255f6118e4565b8786866040518563ffffffff1660e01b8152600401612581949392919061366a565b602060405180830381600087803b15801561259b57600080fd5b505af19250505080156125cc57506040513d601f19601f820116820180604052508101906125c9919061302d565b60015b61264f573d80600081146125fc576040519150601f19603f3d011682016040523d82523d6000602084013e612601565b606091505b50600081511415612647576040517f08c379a000000000000000000000000000000000000000000000000000000000815260040161263e9061379c565b60405180910390fd5b805181602001fd5b63150b7a0260e01b7bffffffffffffffffffffffffffffffffffffffffffffffffffffffff1916817bffffffffffffffffffffffffffffffffffffffffffffffffffffffff1916149150506126a4565b600190505b949350505050565b6126b68383612aa7565b6126c36000848484612515565b612702576040517f08c379a00000000000000000000000000000000000000000000000000000000081526004016126f99061379c565b60405180910390fd5b505050565b505050565b6008805490506009600083815260200190815260200160002081905550600881908060018154018082558091505060019003906000526020600020016000909190919091505550565b6000600161276284610eef565b61276c9190613c9b565b9050600060076000848152602001908152602001600020549050818114612851576000600660008673ffffffffffffffffffffffffffffffffffffffff1673ffffffffffffffffffffffffffffffffffffffff168152602001908152602001600020600084815260200190815260200160002054905080600660008773ffffffffffffffffffffffffffffffffffffffff1673ffffffffffffffffffffffffffffffffffffffff168152602001908152602001600020600084815260200190815260200160002081905550816007600083815260200190815260200160002081905550505b6007600084815260200190815260200160002060009055600660008573ffffffffffffffffffffffffffffffffffffffff1673ffffffffffffffffffffffffffffffffffffffff16815260200190815260200160002060008381526020019081526020016000206000905550505050565b600060016008805490506128d69190613c9b565b905060006009600084815260200190815260200160002054905060006008838154811061292c577f4e487b7100000000000000000000000000000000000000000000000000000000600052603260045260246000fd5b906000526020600020015490508060088381548110612974577f4e487b7100000000000000000000000000000000000000000000000000000000600052603260045260246000fd5b9060005260206000200181905550816009600083815260200190815260200160002081905550600960008581526020019081526020016000206000905560088054806129e9577f4e487b7100000000000000000000000000000000000000000000000000000000600052603160045260246000fd5b6001900381819060005260206000200160009055905550505050565b6000612a1083610eef565b905081600660008573ffffffffffffffffffffffffffffffffffffffff1673ffffffffffffffffffffffffffffffffffffffff168152602001908152602001600020600083815260200190815260200160002081905550806007600084815260200190815260200160002081905550505050565b6000808273ffffffffffffffffffffffffffffffffffffffff163b119050919050565b600073ffffffffffffffffffffffffffffffffffffffff168273ffffffffffffffffffffffffffffffffffffffff161415612b17576040517f08c379a0000000000000000000000000000000000000000000000000000000008152600401612b0e906138fc565b60405180910390fd5b612b2081611878565b15612b60576040517f08c379a0000000000000000000000000000000000000000000000000000000008152600401612b57906137fc565b60405180910390fd5b612b6c600083836123fc565b6001600360008473ffffffffffffffffffffffffffffffffffffffff1673ffffffffffffffffffffffffffffffffffffffff1681526020019081526020016000206000828254612bbc9190613bba565b92505081905550816002600083815260200190815260200160002060006101000a81548173ffffffffffffffffffffffffffffffffffffffff021916908373ffffffffffffffffffffffffffffffffffffffff160217905550808273ffffffffffffffffffffffffffffffffffffffff16600073ffffffffffffffffffffffffffffffffffffffff167fddf252ad1be2c89b69c2b068fc378daa952ba7f163c4a11628f55a4df523b3ef60405160405180910390a4612c7d60008383612510565b5050565b828054612c8d90613d85565b90600052602060002090601f016020900481019282612caf5760008555612cf6565b82601f10612cc857805160ff1916838001178555612cf6565b82800160010185558215612cf6579182015b82811115612cf5578251825591602001919060010190612cda565b5b509050612d039190612d07565b5090565b5b80821115612d20576000816000905550600101612d08565b5090565b6000612d37612d3284613abc565b613a97565b905082815260208101848484011115612d4f57600080fd5b612d5a848285613d43565b509392505050565b6000612d75612d7084613aed565b613a97565b905082815260208101848484011115612d8d57600080fd5b612d98848285613d43565b509392505050565b600081359050612daf8161451e565b92915050565b600081359050612dc481614535565b92915050565b600081359050612dd98161454c565b92915050565b600081519050612dee8161454c565b92915050565b600082601f830112612e0557600080fd5b8135612e15848260208601612d24565b91505092915050565b600082601f830112612e2f57600080fd5b8135612e3f848260208601612d62565b91505092915050565b600081359050612e5781614563565b92915050565b600060208284031215612e6f57600080fd5b6000612e7d84828501612da0565b91505092915050565b60008060408385031215612e9957600080fd5b6000612ea785828601612da0565b9250506020612eb885828601612da0565b9150509250929050565b600080600060608486031215612ed757600080fd5b6000612ee586828701612da0565b9350506020612ef686828701612da0565b9250506040612f0786828701612e48565b9150509250925092565b60008060008060808587031215612f2757600080fd5b6000612f3587828801612da0565b9450506020612f4687828801612da0565b9350506040612f5787828801612e48565b925050606085013567ffffffffffffffff811115612f7457600080fd5b612f8087828801612df4565b91505092959194509250565b60008060408385031215612f9f57600080fd5b6000612fad85828601612da0565b9250506020612fbe85828601612db5565b9150509250929050565b60008060408385031215612fdb57600080fd5b6000612fe985828601612da0565b9250506020612ffa85828601612e48565b9150509250929050565b60006020828403121561301657600080fd5b600061302484828501612dca565b91505092915050565b60006020828403121561303f57600080fd5b600061304d84828501612ddf565b91505092915050565b60006020828403121561306857600080fd5b600082013567ffffffffffffffff81111561308257600080fd5b61308e84828501612e1e565b91505092915050565b6000602082840312156130a957600080fd5b60006130b784828501612e48565b91505092915050565b60006130cc83836135e1565b60208301905092915050565b6130e181613ccf565b82525050565b60006130f282613b43565b6130fc8185613b71565b935061310783613b1e565b8060005b8381101561313857815161311f88826130c0565b975061312a83613b64565b92505060018101905061310b565b5085935050505092915050565b61314e81613ce1565b82525050565b600061315f82613b4e565b6131698185613b82565b9350613179818560208601613d52565b61318281613f1e565b840191505092915050565b600061319882613b59565b6131a28185613b9e565b93506131b2818560208601613d52565b6131bb81613f1e565b840191505092915050565b60006131d182613b59565b6131db8185613baf565b93506131eb818560208601613d52565b80840191505092915050565b6000815461320481613d85565b61320e8186613baf565b94506001821660008114613229576001811461323a5761326d565b60ff1983168652818601935061326d565b61324385613b2e565b60005b8381101561326557815481890152600182019150602081019050613246565b838801955050505b50505092915050565b6000613283602b83613b9e565b915061328e82613f2f565b604082019050919050565b60006132a6603283613b9e565b91506132b182613f7e565b604082019050919050565b60006132c9602683613b9e565b91506132d482613fcd565b604082019050919050565b60006132ec602583613b9e565b91506132f78261401c565b604082019050919050565b600061330f601c83613b9e565b915061331a8261406b565b602082019050919050565b6000613332602483613b9e565b915061333d82614094565b604082019050919050565b6000613355601983613b9e565b9150613360826140e3565b602082019050919050565b6000613378602c83613b9e565b91506133838261410c565b604082019050919050565b600061339b603883613b9e565b91506133a68261415b565b604082019050919050565b60006133be602a83613b9e565b91506133c9826141aa565b604082019050919050565b60006133e1602983613b9e565b91506133ec826141f9565b604082019050919050565b6000613404600f83613b9e565b915061340f82614248565b602082019050919050565b6000613427602083613b9e565b915061343282614271565b602082019050919050565b600061344a601983613b9e565b91506134558261429a565b602082019050919050565b600061346d602c83613b9e565b9150613478826142c3565b604082019050919050565b6000613490600983613b9e565b915061349b82614312565b602082019050919050565b60006134b3602083613b9e565b91506134be8261433b565b602082019050919050565b60006134d6602f83613b9e565b91506134e182614364565b604082019050919050565b60006134f9600f83613b9e565b9150613504826143b3565b602082019050919050565b600061351c602183613b9e565b9150613527826143dc565b604082019050919050565b600061353f600083613b93565b915061354a8261442b565b600082019050919050565b6000613562601083613b9e565b915061356d8261442e565b602082019050919050565b6000613585603183613b9e565b915061359082614457565b604082019050919050565b60006135a8602c83613b9e565b91506135b3826144a6565b604082019050919050565b60006135cb601183613b9e565b91506135d6826144f5565b602082019050919050565b6135ea81613d39565b82525050565b6135f981613d39565b82525050565b600061360b82856131c6565b915061361782846131c6565b91508190509392505050565b600061362f82846131f7565b915081905092915050565b600061364582613532565b9150819050919050565b600060208201905061366460008301846130d8565b92915050565b600060808201905061367f60008301876130d8565b61368c60208301866130d8565b61369960408301856135f0565b81810360608301526136ab8184613154565b905095945050505050565b60006040820190506136cb60008301856130d8565b6136d860208301846135f0565b9392505050565b600060208201905081810360008301526136f981846130e7565b905092915050565b60006020820190506137166000830184613145565b92915050565b60006020820190508181036000830152613736818461318d565b905092915050565b60006060820190508181036000830152613758818661318d565b905061376760208301856135f0565b61377460408301846130d8565b949350505050565b6000602082019050818103600083015261379581613276565b9050919050565b600060208201905081810360008301526137b581613299565b9050919050565b600060208201905081810360008301526137d5816132bc565b9050919050565b600060208201905081810360008301526137f5816132df565b9050919050565b6000602082019050818103600083015261381581613302565b9050919050565b6000602082019050818103600083015261383581613325565b9050919050565b6000602082019050818103600083015261385581613348565b9050919050565b600060208201905081810360008301526138758161336b565b9050919050565b600060208201905081810360008301526138958161338e565b9050919050565b600060208201905081810360008301526138b5816133b1565b9050919050565b600060208201905081810360008301526138d5816133d4565b9050919050565b600060208201905081810360008301526138f5816133f7565b9050919050565b600060208201905081810360008301526139158161341a565b9050919050565b600060208201905081810360008301526139358161343d565b9050919050565b6000602082019050818103600083015261395581613460565b9050919050565b6000602082019050818103600083015261397581613483565b9050919050565b60006020820190508181036000830152613995816134a6565b9050919050565b600060208201905081810360008301526139b5816134c9565b9050919050565b600060208201905081810360008301526139d5816134ec565b9050919050565b600060208201905081810360008301526139f58161350f565b9050919050565b60006020820190508181036000830152613a1581613555565b9050919050565b60006020820190508181036000830152613a3581613578565b9050919050565b60006020820190508181036000830152613a558161359b565b9050919050565b60006020820190508181036000830152613a75816135be565b9050919050565b6000602082019050613a9160008301846135f0565b92915050565b6000613aa1613ab2565b9050613aad8282613db7565b919050565b6000604051905090565b600067ffffffffffffffff821115613ad757613ad6613eef565b5b613ae082613f1e565b9050602081019050919050565b600067ffffffffffffffff821115613b0857613b07613eef565b5b613b1182613f1e565b9050602081019050919050565b6000819050602082019050919050565b60008190508160005260206000209050919050565b600081519050919050565b600081519050919050565b600081519050919050565b6000602082019050919050565b600082825260208201905092915050565b600082825260208201905092915050565b600081905092915050565b600082825260208201905092915050565b600081905092915050565b6000613bc582613d39565b9150613bd083613d39565b9250827fffffffffffffffffffffffffffffffffffffffffffffffffffffffffffffffff03821115613c0557613c04613e62565b5b828201905092915050565b6000613c1b82613d39565b9150613c2683613d39565b925082613c3657613c35613e91565b5b828204905092915050565b6000613c4c82613d39565b9150613c5783613d39565b9250817fffffffffffffffffffffffffffffffffffffffffffffffffffffffffffffffff0483118215151615613c9057613c8f613e62565b5b828202905092915050565b6000613ca682613d39565b9150613cb183613d39565b925082821015613cc457613cc3613e62565b5b828203905092915050565b6000613cda82613d19565b9050919050565b60008115159050919050565b60007fffffffff0000000000000000000000000000000000000000000000000000000082169050919050565b600073ffffffffffffffffffffffffffffffffffffffff82169050919050565b6000819050919050565b82818337600083830152505050565b60005b83811015613d70578082015181840152602081019050613d55565b83811115613d7f576000848401525b50505050565b60006002820490506001821680613d9d57607f821691505b60208210811415613db157613db0613ec0565b5b50919050565b613dc082613f1e565b810181811067ffffffffffffffff82111715613ddf57613dde613eef565b5b80604052505050565b6000613df382613d39565b91507fffffffffffffffffffffffffffffffffffffffffffffffffffffffffffffffff821415613e2657613e25613e62565b5b600182019050919050565b6000613e3c82613d39565b9150613e4783613d39565b925082613e5757613e56613e91565b5b828206905092915050565b7f4e487b7100000000000000000000000000000000000000000000000000000000600052601160045260246000fd5b7f4e487b7100000000000000000000000000000000000000000000000000000000600052601260045260246000fd5b7f4e487b7100000000000000000000000000000000000000000000000000000000600052602260045260246000fd5b7f4e487b7100000000000000000000000000000000000000000000000000000000600052604160045260246000fd5b6000601f19601f8301169050919050565b7f455243373231456e756d657261626c653a206f776e657220696e646578206f7560008201527f74206f6620626f756e6473000000000000000000000000000000000000000000602082015250565b7f4552433732313a207472616e7366657220746f206e6f6e20455243373231526560008201527f63656976657220696d706c656d656e7465720000000000000000000000000000602082015250565b7f4f776e61626c653a206e6577206f776e657220697320746865207a65726f206160008201527f6464726573730000000000000000000000000000000000000000000000000000602082015250565b7f4552433732313a207472616e736665722066726f6d20696e636f72726563742060008201527f6f776e6572000000000000000000000000000000000000000000000000000000602082015250565b7f4552433732313a20746f6b656e20616c7265616479206d696e74656400000000600082015250565b7f4552433732313a207472616e7366657220746f20746865207a65726f2061646460008201527f7265737300000000000000000000000000000000000000000000000000000000602082015250565b7f4552433732313a20617070726f766520746f2063616c6c657200000000000000600082015250565b7f4552433732313a206f70657261746f7220717565727920666f72206e6f6e657860008201527f697374656e7420746f6b656e0000000000000000000000000000000000000000602082015250565b7f4552433732313a20617070726f76652063616c6c6572206973206e6f74206f7760008201527f6e6572206e6f7220617070726f76656420666f7220616c6c0000000000000000602082015250565b7f4552433732313a2062616c616e636520717565727920666f7220746865207a6560008201527f726f206164647265737300000000000000000000000000000000000000000000602082015250565b7f4552433732313a206f776e657220717565727920666f72206e6f6e657869737460008201527f656e7420746f6b656e0000000000000000000000000000000000000000000000602082015250565b7f4e6f7420656e6f756768204e4654730000000000000000000000000000000000600082015250565b7f4552433732313a206d696e7420746f20746865207a65726f2061646472657373600082015250565b7f4e6f206574686572206c65667420746f20776974686472617700000000000000600082015250565b7f4552433732313a20617070726f76656420717565727920666f72206e6f6e657860008201527f697374656e7420746f6b656e0000000000000000000000000000000000000000602082015250565b7f534f4c44204f5554210000000000000000000000000000000000000000000000600082015250565b7f4f776e61626c653a2063616c6c6572206973206e6f7420746865206f776e6572600082015250565b7f4552433732314d657461646174613a2055524920717565727920666f72206e6f60008201527f6e6578697374656e7420746f6b656e0000000000000000000000000000000000602082015250565b7f42616c616e636520546f6f204c6f770000000000000000000000000000000000600082015250565b7f4552433732313a20617070726f76616c20746f2063757272656e74206f776e6560008201527f7200000000000000000000000000000000000000000000000000000000000000602082015250565b50565b7f5472616e73666572206661696c65642e00000000000000000000000000000000600082015250565b7f4552433732313a207472616e736665722063616c6c6572206973206e6f74206f60008201527f776e6572206e6f7220617070726f766564000000000000000000000000000000602082015250565b7f455243373231456e756d657261626c653a20676c6f62616c20696e646578206f60008201527f7574206f6620626f756e64730000000000000000000000000000000000000000602082015250565b7f5175616e7469747920546f6f2048696768000000000000000000000000000000600082015250565b61452781613ccf565b811461453257600080fd5b50565b61453e81613ce1565b811461454957600080fd5b50565b61455581613ced565b811461456057600080fd5b50565b61456c81613d39565b811461457757600080fd5b5056fe416e204e465420772f20494420257320686173206265656e206d696e74656420746f202573a2646970667358221220e90e99e22136c2b7a66e25822b3d4f56f0754fa98c050de42ee0a9886a95d32264736f6c63430008040033",
  "linkReferences": {},
  "deployedLinkReferences": {}
}